:100000000C942A000C9447000C9447000C94470071
:100010000C9447000C9447000C9447000C94470044
:100020000C9447000C9447000C9447000C94470034
:100030000C9447000C9447000C9447000C94470024
:100040000C9447000C9447000C9447000C94470014
:100050000C94470011241FBECFE5D8E0DEBFCDBF12
:1000600010E0A0E6B0E0ECEDF7E002C005900D92E4
:10007000AE3BB107D9F721E0AEEBB0E001C01D9275
:10008000AF35B207E1F70E94D2030C94EC030C9455
:10009000000092B38C739370892B82BB919A9198D4
:1000A00084E68A95F1F70895CF93C82F611102C0B5
:1000B000909801C0909A8C2F869586950E94490051
:1000C0008C2F880F880FCF910C94490060E00C941E
:1000D000540061E00C94540092B38C739370892B9C
:1000E00082BB919A919808958FEF81BB8FE99FE031
:1000F0000197F1F700C0000082B38C7F82BB80E0E3
:1001000094E00197F1F700C0000083E00E946600D0
:1001100080E094E00197F1F700C0000083E00E94C6
:10012000660080E094E00197F1F700C0000083E0F2
:100130000E94660080E094E00197F1F700C00000A3
:1001400083E30E94660083EF91E00197F1F700C01E
:10015000000082E30E94660083EF91E00197F1F7CF
:1001600000C0000088E20E94660083EF91E00197E2
:10017000F1F700C0000081E00E94660083EF91E08B
:100180000197F1F700C0000082E00E9466008BE753
:1001900091E00197F1F700C000008EE00E94660038
:1001A00092E49A95F1F700C080E80E94660082E42C
:1001B0008A95F1F700C00895CF93DF9300D000D067
:1001C000CDB7DEB7198290E49A8394E19B8394E5DE
:1001D0009C83813108F080E0633008F060E0805853
:1001E000FE01E60FF11D9181890F0F900F900F9086
:1001F0000F90DF91CF910C946600CF93DF93EC01C9
:100200008991882319F00E946900FACFDF91CF917C
:1002100008958093FF006093000108959091FF007E
:100220009031E8F4209100012230C8F430E1239F9E
:10023000F0011124E90FF11DE154FF4F80839F5F0E
:10024000903119F09093FF0008951092FF00213033
:1002500021F081E08093000108951092000108953B
:10026000EFEBF0E090E280E18E0F91938E13FDCFE3
:10027000EFECF0E090E280E18E0F91938E13FDCFD2
:100280001092FF00109200010895CF93DF93EC01CC
:100290008991882319F00E940E01FACFDF91CF9146
:1002A00008958F929F92AF92BF92CF92DF92EF927A
:1002B000FF920F931F93CF93DF938FEBE82E80E095
:1002C000F82E0FED10E0D12CCC24C394C0E0D0E088
:1002D0005701AC0EBD1E48018C0E9D1EF50190818C
:1002E000F40180819817A1F08091BE00811104C0B3
:1002F0006D2D8C2F0E94DC00909AF50180810E9468
:100300006900F5018081F4018083C092BE0002C0C3
:100310001092BE002196C031D105D1F6F0E1EF0E6A
:10032000F11C005F1F4F81E0D81619F0DD24D39433
:10033000CDCFDF91CF911F910F91FF90EF90DF9084
:10034000CF90BF90AF909F908F9008959F92AF9263
:10035000BF92CF92DF92EF92FF920F931F93CF93B2
:10036000DF9300D000D0CDB7DEB7482F89E6898370
:100370008A838B831C8252E0EAE0F9E388E3A82EAB
:1003800097E3992E16E305E324E3F22E33E3E32EFD
:1003900062E3D62E71E3C72EA0E3BA2E442309F4FC
:1003A00078C0842F6E2F0E94E003252F30E091113A
:1003B00009C081E090E08C0F9D1F280F391FD901E3
:1003C000BC9260C0913049F481E090E08C0F9D1F99
:1003D000280F391FD901CC9255C0923049F481E0E1
:1003E00090E08C0F9D1F280F391FD901DC924AC065
:1003F000933049F481E090E08C0F9D1F280F391F46
:10040000D901EC923FC0943049F481E090E08C0F28
:100410009D1F280F391FD901FC9234C0953049F433
:1004200081E090E08C0F9D1F280F391FD9010C939C
:1004300029C0963049F481E090E08C0F9D1F280F71
:10044000391FD9011C931EC0973049F481E090E018
:100450008C0F9D1F280F391FD9019C9213C0983013
:1004600049F481E090E08C0F9D1F280F391FD901BE
:10047000AC9208C081E090E08C0F9D1F280F391FBF
:10048000D901FC935150842F6E2F0E94E003482F16
:1004900085CF8B81893611F480E38B839E012F5F9A
:1004A0003F4FC9012F5F3F4FFC0140814936C9F3DF
:1004B0000E9445010F900F900F900F90DF91CF9108
:1004C0001F910F91FF90EF90DF90CF90BF90AF9072
:1004D0009F9008950F931F93CF93DF9308E111E04E
:1004E00080E690E0D80111969C938E93E0E4F1E0D1
:1004F0001396FC93EE931297CEE0D1E01596DC9321
:10050000CE93149719961C921E92189717961C92C8
:100510001E9216978CE690E09183808365E571E0EA
:1005200073836283158304831186108626E331E08A
:100530003783268386E790E0DB0111969C938E93A8
:100540004CE251E013965C934E9312971596FC93F0
:10055000EE93149719961C921E92189717961C9258
:100560001E9216978BE790E0DA0111969C938E937A
:1005700082E291E013969C938E93129715967C934A
:100580006E93149719961C921E92189717961C92A8
:100590001E92169765E870E0DC0111967C936E93CD
:1005A0001396DC93CE93129715965C934E93149703
:1005B00019961C921E92189717961C921E921697C7
:1005C0004FE850E0598348831B821A829D838C83B5
:1005D000198618861F821E8289E990E0D90111963A
:1005E0009C938E9382E091E013969C938E93129746
:1005F000CAE4D1E01596DC93CE9314971996FC9338
:10060000EE93189717961C921E92169745EA50E0A3
:10061000DC0111965C934E931396DC93CE93129764
:1006200015963C932E9314971996FC93EE93189776
:1006300017961C921E92169721EB30E0398328837F
:100640001B821A829D838C83F987E8871F821E8212
:1006500010930D0100930C011092010110925401AE
:10066000DF91CF911F910F9108951F93CF93DF9347
:10067000E0910C01F0910D010084F185E02D30979F
:1006800019F0C681D78102C0C8E1D1E08091010193
:1006900090E020915401821B910920E0422F50E00C
:1006A0004817590729F00A80DB81C02D2F5FF6CF4C
:1006B0000E94300110E0612F80E00E9409018091CA
:1006C0000C0190910D01C817D90711F48EE301C0F8
:1006D00080E20E940E01612F82E00E940901888160
:1006E00099810E9445010A80DB81C02D209721F06D
:1006F000113011F011E0DFCFDF91CF911F910895FC
:10070000E0910C01F0910D0182819381009791F0AD
:1007100090930D0180930C01809101018F5F809374
:100720000101809154018F5F823008F081E0809355
:10073000540112C010920101109254010084F185FD
:10074000E02D309719F08681978102C088E191E011
:1007500090930D0180930C010C943503E0910C01F2
:10076000F0910D0186819781009751F0109201015F
:100770001092540190930D0180930C010C94350359
:100780000895FC0180859185892B51F090E00084CB
:10079000F185E02D309711F09F5FF9CF892F0895F3
:1007A00080E0089581E087BB87E088BB0E947400E9
:1007B0000E94300180E00E94A6010E945101FDCFFD
:1007C000991B79E004C0991F961708F0961B881FA3
:0C07D0007A95C9F780950895F894FFCF42
:1007DC004D454E5520474C4F574E4500454C454DC9
:1007EC00454E54203200494E4E5900454C454D451E
:1007FC004E54203400454C454D454E542035004553
:10080C004C454D454E54203600454C454D454E54B7
:10081C0020325F3100454C454D454E5420325F32FD
:0E082C0000454C454D454E5420325F330000D0
:00000001FF
